{
  "address": "0xe7f1725E7734CE288F8367e1Bb143E90bb3F0512",
  "abi": [
    {
      "inputs": [
        {
          "internalType": "address",
          "name": "_priceFeed",
          "type": "address"
        }
      ],
      "stateMutability": "payable",
      "type": "constructor"
    },
    {
      "inputs": [],
      "name": "FundMe__not_owner",
      "type": "error"
    },
    {
      "inputs": [],
      "name": "Fund",
      "outputs": [],
      "stateMutability": "payable",
      "type": "function"
    },
    {
      "inputs": [],
      "name": "cheaperWithdraw",
      "outputs": [],
      "stateMutability": "nonpayable",
      "type": "function"
    },
    {
      "inputs": [
        {
          "internalType": "uint256",
          "name": "ethAmount",
          "type": "uint256"
        }
      ],
      "name": "getConverstionRate",
      "outputs": [
        {
          "internalType": "uint256",
          "name": "",
          "type": "uint256"
        }
      ],
      "stateMutability": "view",
      "type": "function"
    },
    {
      "inputs": [
        {
          "internalType": "uint256",
          "name": "index",
          "type": "uint256"
        }
      ],
      "name": "getFunders",
      "outputs": [
        {
          "internalType": "address",
          "name": "",
          "type": "address"
        }
      ],
      "stateMutability": "view",
      "type": "function"
    },
    {
      "inputs": [],
      "name": "getFundersLength",
      "outputs": [
        {
          "internalType": "uint256",
          "name": "",
          "type": "uint256"
        }
      ],
      "stateMutability": "view",
      "type": "function"
    },
    {
      "inputs": [],
      "name": "getOwner",
      "outputs": [
        {
          "internalType": "address",
          "name": "",
          "type": "address"
        }
      ],
      "stateMutability": "view",
      "type": "function"
    },
    {
      "inputs": [],
      "name": "getPrice",
      "outputs": [
        {
          "internalType": "uint256",
          "name": "",
          "type": "uint256"
        }
      ],
      "stateMutability": "view",
      "type": "function"
    },
    {
      "inputs": [
        {
          "internalType": "address",
          "name": "funderIndex",
          "type": "address"
        }
      ],
      "name": "getsFundersWithAmount",
      "outputs": [
        {
          "internalType": "uint256",
          "name": "",
          "type": "uint256"
        }
      ],
      "stateMutability": "view",
      "type": "function"
    },
    {
      "inputs": [],
      "name": "getsPriceFeed",
      "outputs": [
        {
          "internalType": "contract AggregatorV3Interface",
          "name": "",
          "type": "address"
        }
      ],
      "stateMutability": "view",
      "type": "function"
    },
    {
      "inputs": [],
      "name": "withdraw",
      "outputs": [],
      "stateMutability": "nonpayable",
      "type": "function"
    }
  ],
  "transactionHash": "0xf340bcb3cd3cabfc557a72fae4cac0cf3e30e9db9650cec1fc2eeb9b48de9191",
  "args": [
    "0x5FbDB2315678afecb367f032d93F642f64180aa3"
  ],
  "numDeployments": 1,
  "solcInputHash": "6d1c7823da4315911a41a9f4e37066be",
  "bytecode": "0x60a06040526040516115b33803806115b383398181016040528101906100259190610103565b3373ffffffffffffffffffffffffffffffffffffffff1660808173ffffffffffffffffffffffffffffffffffffffff168152505080600160006101000a81548173ffffffffffffffffffffffffffffffffffffffff021916908373ffffffffffffffffffffffffffffffffffffffff16021790555050610130565b600080fd5b600073ffffffffffffffffffffffffffffffffffffffff82169050919050565b60006100d0826100a5565b9050919050565b6100e0816100c5565b81146100eb57600080fd5b50565b6000815190506100fd816100d7565b92915050565b600060208284031215610119576101186100a0565b5b6000610127848285016100ee565b91505092915050565b6080516114536101606000396000818161027a0152818161068801528181610793015261089001526114536000f3fe6080604052600436106100915760003560e01c8063893d20e811610059578063893d20e81461015c57806398d5fdca14610187578063a4115c2a146101b2578063be2693f0146101ef578063c90e75661461020657610091565b80633a7b6c74146100965780633ccfd60b146100d35780633edeb84f146100ea5780636ce1417e14610115578063755255811461011f575b600080fd5b3480156100a257600080fd5b506100bd60048036038101906100b89190610d48565b610231565b6040516100ca9190610db6565b60405180910390f35b3480156100df57600080fd5b506100e8610278565b005b3480156100f657600080fd5b506100ff610514565b60405161010c9190610e30565b60405180910390f35b61011d61053e565b005b34801561012b57600080fd5b5061014660048036038101906101419190610e77565b61063b565b6040516101539190610eb3565b60405180910390f35b34801561016857600080fd5b50610171610684565b60405161017e9190610db6565b60405180910390f35b34801561019357600080fd5b5061019c6106ac565b6040516101a99190610eb3565b60405180910390f35b3480156101be57600080fd5b506101d960048036038101906101d49190610d48565b61075d565b6040516101e69190610eb3565b60405180910390f35b3480156101fb57600080fd5b50610204610791565b005b34801561021257600080fd5b5061021b610af6565b6040516102289190610eb3565b60405180910390f35b600080828154811061024657610245610ece565b5b9060005260206000200160009054906101000a900473ffffffffffffffffffffffffffffffffffffffff169050919050565b7f000000000000000000000000000000000000000000000000000000000000000073ffffffffffffffffffffffffffffffffffffffff163373ffffffffffffffffffffffffffffffffffffffff16146102fd576040517fb587524500000000000000000000000000000000000000000000000000000000815260040160405180910390fd5b60005b6000805490508110156104575760006002600080848154811061032657610325610ece565b5b9060005260206000200160009054906101000a900473ffffffffffffffffffffffffffffffffffffffff1673ffffffffffffffffffffffffffffffffffffffff1673ffffffffffffffffffffffffffffffffffffffff1681526020019081526020016000208190555061044a6040518060400160405280601e81526020017f2066756e6465727357697468416d6f756e745b66756e6465725d203a3a200000815250600260008085815481106103df576103de610ece565b5b9060005260206000200160009054906101000a900473ffffffffffffffffffffffffffffffffffffffff1673ffffffffffffffffffffffffffffffffffffffff1673ffffffffffffffffffffffffffffffffffffffff16815260200190815260200160002054610b47565b8080600101915050610300565b506000806104659190610cc5565b60003373ffffffffffffffffffffffffffffffffffffffff164760405161048b90610f2e565b60006040518083038185875af1925050503d80600081146104c8576040519150601f19603f3d011682016040523d82523d6000602084013e6104cd565b606091505b5050905080610511576040517f08c379a000000000000000000000000000000000000000000000000000000000815260040161050890610fa0565b60405180910390fd5b50565b6000600160009054906101000a900473ffffffffffffffffffffffffffffffffffffffff16905090565b6802b5e3af16b18800006105513461075d565b1015610592576040517f08c379a000000000000000000000000000000000000000000000000000000000815260040161058990611032565b60405180910390fd5b34600260003373ffffffffffffffffffffffffffffffffffffffff1673ffffffffffffffffffffffffffffffffffffffff168152602001908152602001600020819055506000339080600181540180825580915050600190039060005260206000200160009091909190916101000a81548173ffffffffffffffffffffffffffffffffffffffff021916908373ffffffffffffffffffffffffffffffffffffffff160217905550565b6000600260008373ffffffffffffffffffffffffffffffffffffffff1673ffffffffffffffffffffffffffffffffffffffff168152602001908152602001600020549050919050565b60007f0000000000000000000000000000000000000000000000000000000000000000905090565b600080600160009054906101000a900473ffffffffffffffffffffffffffffffffffffffff1673ffffffffffffffffffffffffffffffffffffffff1663feaf968c6040518163ffffffff1660e01b815260040160a060405180830381865afa15801561071c573d6000803e3d6000fd5b505050506040513d601f19601f8201168201806040525081019061074091906110df565b5050509150506402540be400816107579190611189565b91505090565b6000806107686106ac565b9050670de0b6b3a7640000818461077f9190611201565b6107899190611272565b915050919050565b7f000000000000000000000000000000000000000000000000000000000000000073ffffffffffffffffffffffffffffffffffffffff163373ffffffffffffffffffffffffffffffffffffffff1614610816576040517fb587524500000000000000000000000000000000000000000000000000000000815260040160405180910390fd5b6108556040518060400160405280600c81526020017f6d73672e73656e6465723a20000000000000000000000000000000000000000081525033610be3565b6108b46040518060400160405280601081526020017f636f6e7472616374206f776e65723a20000000000000000000000000000000008152507f0000000000000000000000000000000000000000000000000000000000000000610be3565b6108f36040518060400160405280601881526020017f20616464726573732874686973292e62616c616e63653a20000000000000000081525047610b47565b60008080548060200260200160405190810160405280929190818152602001828054801561097657602002820191906000526020600020905b8160009054906101000a900473ffffffffffffffffffffffffffffffffffffffff1673ffffffffffffffffffffffffffffffffffffffff168152602001906001019080831161092c575b5050505050905060005b81518110156109f5576000600260008484815181106109a2576109a1610ece565b5b602002602001015173ffffffffffffffffffffffffffffffffffffffff1673ffffffffffffffffffffffffffffffffffffffff168152602001908152602001600020819055508080600101915050610980565b50600080610a039190610cc5565b6060905060003373ffffffffffffffffffffffffffffffffffffffff1647604051610a2d90610f2e565b60006040518083038185875af1925050503d8060008114610a6a576040519150601f19603f3d011682016040523d82523d6000602084013e610a6f565b606091505b50509050610ab26040518060400160405280601881526020017f20616464726573732874686973292e62616c616e63653a20000000000000000081525047610b47565b80610af2576040517f08c379a0000000000000000000000000000000000000000000000000000000008152600401610ae9906112ef565b60405180910390fd5b5050565b6000610b3c6040518060400160405280601181526020017f6765745f735f66756e64657273203a3a20000000000000000000000000000000815250600080549050610b47565b600080549050905090565b610bdf8282604051602401610b5d92919061138e565b6040516020818303038152906040527fb60e72cc000000000000000000000000000000000000000000000000000000007bffffffffffffffffffffffffffffffffffffffffffffffffffffffff19166020820180517bffffffffffffffffffffffffffffffffffffffffffffffffffffffff8381831617835250505050610c7f565b5050565b610c7b8282604051602401610bf99291906113be565b6040516020818303038152906040527f319af333000000000000000000000000000000000000000000000000000000007bffffffffffffffffffffffffffffffffffffffffffffffffffffffff19166020820180517bffffffffffffffffffffffffffffffffffffffffffffffffffffffff8381831617835250505050610c7f565b5050565b610c9681610c8e610c99610cba565b63ffffffff16565b50565b60006a636f6e736f6c652e6c6f679050600080835160208501845afa505050565b610ce6819050919050565b5080546000825590600052602060002090810190610ce39190610cf0565b50565b610cee6113ee565b565b5b80821115610d09576000816000905550600101610cf1565b5090565b600080fd5b6000819050919050565b610d2581610d12565b8114610d3057600080fd5b50565b600081359050610d4281610d1c565b92915050565b600060208284031215610d5e57610d5d610d0d565b5b6000610d6c84828501610d33565b91505092915050565b600073ffffffffffffffffffffffffffffffffffffffff82169050919050565b6000610da082610d75565b9050919050565b610db081610d95565b82525050565b6000602082019050610dcb6000830184610da7565b92915050565b6000819050919050565b6000610df6610df1610dec84610d75565b610dd1565b610d75565b9050919050565b6000610e0882610ddb565b9050919050565b6000610e1a82610dfd565b9050919050565b610e2a81610e0f565b82525050565b6000602082019050610e456000830184610e21565b92915050565b610e5481610d95565b8114610e5f57600080fd5b50565b600081359050610e7181610e4b565b92915050565b600060208284031215610e8d57610e8c610d0d565b5b6000610e9b84828501610e62565b91505092915050565b610ead81610d12565b82525050565b6000602082019050610ec86000830184610ea4565b92915050565b7f4e487b7100000000000000000000000000000000000000000000000000000000600052603260045260246000fd5b600081905092915050565b50565b6000610f18600083610efd565b9150610f2382610f08565b600082019050919050565b6000610f3982610f0b565b9150819050919050565b600082825260208201905092915050565b7f73656e6465722063616c6c206661696c00000000000000000000000000000000600082015250565b6000610f8a601083610f43565b9150610f9582610f54565b602082019050919050565b60006020820190508181036000830152610fb981610f7d565b9050919050565b7f4554482076616c7565206d7573742062652067726561746572207468616e206f60008201527f7220657175616c20746f20353020555344000000000000000000000000000000602082015250565b600061101c603183610f43565b915061102782610fc0565b604082019050919050565b6000602082019050818103600083015261104b8161100f565b9050919050565b600069ffffffffffffffffffff82169050919050565b61107181611052565b811461107c57600080fd5b50565b60008151905061108e81611068565b92915050565b6000819050919050565b6110a781611094565b81146110b257600080fd5b50565b6000815190506110c48161109e565b92915050565b6000815190506110d981610d1c565b92915050565b600080600080600060a086880312156110fb576110fa610d0d565b5b60006111098882890161107f565b955050602061111a888289016110b5565b945050604061112b888289016110ca565b935050606061113c888289016110ca565b925050608061114d8882890161107f565b9150509295509295909350565b7f4e487b7100000000000000000000000000000000000000000000000000000000600052601160045260246000fd5b600061119482611094565b915061119f83611094565b92508282026111ad81611094565b91507f800000000000000000000000000000000000000000000000000000000000000084146000841216156111e5576111e461115a565b5b82820584148315176111fa576111f961115a565b5b5092915050565b600061120c82610d12565b915061121783610d12565b925082820261122581610d12565b9150828204841483151761123c5761123b61115a565b5b5092915050565b7f4e487b7100000000000000000000000000000000000000000000000000000000600052601260045260246000fd5b600061127d82610d12565b915061128883610d12565b92508261129857611297611243565b5b828204905092915050565b7f73656e6465722063616c6c206661696c202d2077697468647261770000000000600082015250565b60006112d9601b83610f43565b91506112e4826112a3565b602082019050919050565b60006020820190508181036000830152611308816112cc565b9050919050565b600081519050919050565b60005b8381101561133857808201518184015260208101905061131d565b60008484015250505050565b6000601f19601f8301169050919050565b60006113608261130f565b61136a8185610f43565b935061137a81856020860161131a565b61138381611344565b840191505092915050565b600060408201905081810360008301526113a88185611355565b90506113b76020830184610ea4565b9392505050565b600060408201905081810360008301526113d88185611355565b90506113e76020830184610da7565b9392505050565b7f4e487b7100000000000000000000000000000000000000000000000000000000600052605160045260246000fdfea26469706673582212204f27033529a96cdf9a51b4fd0c4b4fc09cd0378ff345cf5f3bc73244ca9000e964736f6c634300081c0033",
  "devdoc": {
    "kind": "dev",
    "methods": {},
    "version": 1
  },
  "userdoc": {
    "kind": "user",
    "methods": {},
    "version": 1
  },
  "storageLayout": {
    "storage": [
      {
        "astId": 319,
        "contract": "contracts/FundMe.sol:FundMe",
        "label": "s_funders",
        "offset": 0,
        "slot": "0",
        "type": "t_array(t_address)dyn_storage"
      },
      {
        "astId": 327,
        "contract": "contracts/FundMe.sol:FundMe",
        "label": "s_priceFeed",
        "offset": 0,
        "slot": "1",
        "type": "t_contract(AggregatorV3Interface)102"
      },
      {
        "astId": 331,
        "contract": "contracts/FundMe.sol:FundMe",
        "label": "s_fundersWithAmount",
        "offset": 0,
        "slot": "2",
        "type": "t_mapping(t_address,t_uint256)"
      }
    ],
    "types": {
      "t_address": {
        "encoding": "inplace",
        "label": "address",
        "numberOfBytes": "20"
      },
      "t_array(t_address)dyn_storage": {
        "base": "t_address",
        "encoding": "dynamic_array",
        "label": "address[]",
        "numberOfBytes": "32"
      },
      "t_contract(AggregatorV3Interface)102": {
        "encoding": "inplace",
        "label": "contract AggregatorV3Interface",
        "numberOfBytes": "20"
      },
      "t_mapping(t_address,t_uint256)": {
        "encoding": "mapping",
        "key": "t_address",
        "label": "mapping(address => uint256)",
        "numberOfBytes": "32",
        "value": "t_uint256"
      },
      "t_uint256": {
        "encoding": "inplace",
        "label": "uint256",
        "numberOfBytes": "32"
      }
    }
  }
}